{"abi":[{"type":"constructor","inputs":[{"name":"_operator","type":"address","internalType":"address"}],"stateMutability":"nonpayable"},{"type":"function","name":"approve","inputs":[{"name":"","type":"address","internalType":"address"},{"name":"","type":"uint256","internalType":"uint256"}],"outputs":[],"stateMutability":"pure"},{"type":"function","name":"balanceOf","inputs":[{"name":"_ownerAddr","type":"address","internalType":"address"}],"outputs":[{"name":"","type":"uint256","internalType":"uint256"}],"stateMutability":"view"},{"type":"function","name":"getAgentData","inputs":[{"name":"tokenId","type":"uint256","internalType":"uint256"}],"outputs":[{"name":"","type":"tuple","internalType":"struct FabricIdentity.AgentData","components":[{"name":"agentName","type":"string","internalType":"string"},{"name":"registryId","type":"uint256","internalType":"uint256"},{"name":"createdAt","type":"uint256","internalType":"uint256"}]}],"stateMutability":"view"},{"type":"function","name":"getApproved","inputs":[{"name":"","type":"uint256","internalType":"uint256"}],"outputs":[{"name":"","type":"address","internalType":"address"}],"stateMutability":"pure"},{"type":"function","name":"isApprovedForAll","inputs":[{"name":"","type":"address","internalType":"address"},{"name":"","type":"address","internalType":"address"}],"outputs":[{"name":"","type":"bool","internalType":"bool"}],"stateMutability":"pure"},{"type":"function","name":"mint","inputs":[{"name":"to","type":"address","internalType":"address"},{"name":"agentName","type":"string","internalType":"string"},{"name":"registryId","type":"uint256","internalType":"uint256"}],"outputs":[{"name":"tokenId","type":"uint256","internalType":"uint256"}],"stateMutability":"nonpayable"},{"type":"function","name":"name","inputs":[],"outputs":[{"name":"","type":"string","internalType":"string"}],"stateMutability":"view"},{"type":"function","name":"operator","inputs":[],"outputs":[{"name":"","type":"address","internalType":"address"}],"stateMutability":"view"},{"type":"function","name":"owner","inputs":[],"outputs":[{"name":"","type":"address","internalType":"address"}],"stateMutability":"view"},{"type":"function","name":"ownerOf","inputs":[{"name":"tokenId","type":"uint256","internalType":"uint256"}],"outputs":[{"name":"","type":"address","internalType":"address"}],"stateMutability":"view"},{"type":"function","name":"safeTransferFrom","inputs":[{"name":"","type":"address","internalType":"address"},{"name":"","type":"address","internalType":"address"},{"name":"","type":"uint256","internalType":"uint256"}],"outputs":[],"stateMutability":"pure"},{"type":"function","name":"safeTransferFrom","inputs":[{"name":"","type":"address","internalType":"address"},{"name":"","type":"address","internalType":"address"},{"name":"","type":"uint256","internalType":"uint256"},{"name":"","type":"bytes","internalType":"bytes"}],"outputs":[],"stateMutability":"pure"},{"type":"function","name":"setApprovalForAll","inputs":[{"name":"","type":"address","internalType":"address"},{"name":"","type":"bool","internalType":"bool"}],"outputs":[],"stateMutability":"pure"},{"type":"function","name":"setOperator","inputs":[{"name":"_operator","type":"address","internalType":"address"}],"outputs":[],"stateMutability":"nonpayable"},{"type":"function","name":"supportsInterface","inputs":[{"name":"interfaceId","type":"bytes4","internalType":"bytes4"}],"outputs":[{"name":"","type":"bool","internalType":"bool"}],"stateMutability":"pure"},{"type":"function","name":"symbol","inputs":[],"outputs":[{"name":"","type":"string","internalType":"string"}],"stateMutability":"view"},{"type":"function","name":"tokenByRegistryId","inputs":[{"name":"registryId","type":"uint256","internalType":"uint256"}],"outputs":[{"name":"","type":"uint256","internalType":"uint256"}],"stateMutability":"view"},{"type":"function","name":"tokenURI","inputs":[{"name":"tokenId","type":"uint256","internalType":"uint256"}],"outputs":[{"name":"","type":"string","internalType":"string"}],"stateMutability":"view"},{"type":"function","name":"totalSupply","inputs":[],"outputs":[{"name":"","type":"uint256","internalType":"uint256"}],"stateMutability":"view"},{"type":"function","name":"transferFrom","inputs":[{"name":"","type":"address","internalType":"address"},{"name":"","type":"address","internalType":"address"},{"name":"","type":"uint256","internalType":"uint256"}],"outputs":[],"stateMutability":"pure"},{"type":"function","name":"transferOwnership","inputs":[{"name":"newOwner","type":"address","internalType":"address"}],"outputs":[],"stateMutability":"nonpayable"},{"type":"event","name":"AgentMinted","inputs":[{"name":"tokenId","type":"uint256","indexed":true,"internalType":"uint256"},{"name":"to","type":"address","indexed":true,"internalType":"address"},{"name":"agentName","type":"string","indexed":false,"internalType":"string"},{"name":"registryId","type":"uint256","indexed":false,"internalType":"uint256"}],"anonymous":false},{"type":"event","name":"Approval","inputs":[{"name":"owner","type":"address","indexed":true,"internalType":"address"},{"name":"approved","type":"address","indexed":true,"internalType":"address"},{"name":"tokenId","type":"uint256","indexed":true,"internalType":"uint256"}],"anonymous":false},{"type":"event","name":"ApprovalForAll","inputs":[{"name":"owner","type":"address","indexed":true,"internalType":"address"},{"name":"operator","type":"address","indexed":true,"internalType":"address"},{"name":"approved","type":"bool","indexed":false,"internalType":"bool"}],"anonymous":false},{"type":"event","name":"Transfer","inputs":[{"name":"from","type":"address","indexed":true,"internalType":"address"},{"name":"to","type":"address","indexed":true,"internalType":"address"},{"name":"tokenId","type":"uint256","indexed":true,"internalType":"uint256"}],"anonymous":false}],"bytecode":{"object":"0x60c0604052601560809081527f466162726963204167656e74204964656e74697479000000000000000000000060a0525f906200003d908262000174565b50604080518082019091526009815268119050949250cb525160ba1b60208201526001906200006d908262000174565b5060016004553480156200007f575f80fd5b506040516200163538038062001635833981016040819052620000a29162000240565b60028054336001600160a01b031991821617909155600380549091166001600160a01b03929092169190911790556200026f565b634e487b7160e01b5f52604160045260245ffd5b600181811c90821680620000ff57607f821691505b6020821081036200011e57634e487b7160e01b5f52602260045260245ffd5b50919050565b601f8211156200016f57805f5260205f20601f840160051c810160208510156200014b5750805b601f840160051c820191505b818110156200016c575f815560010162000157565b50505b505050565b81516001600160401b03811115620001905762000190620000d6565b620001a881620001a18454620000ea565b8462000124565b602080601f831160018114620001de575f8415620001c65750858301515b5f19600386901b1c1916600185901b17855562000238565b5f85815260208120601f198616915b828110156200020e57888601518255948401946001909101908401620001ed565b50858210156200022c57878501515f19600388901b60f8161c191681555b505060018460011b0185555b505050505050565b5f6020828403121562000251575f80fd5b81516001600160a01b038116811462000268575f80fd5b9392505050565b6113b8806200027d5f395ff3fe608060405234801561000f575f80fd5b5060043610610132575f3560e01c80638da5cb5b116100b4578063b88d4fde11610079578063b88d4fde1461026d578063ba7aef431461027b578063c87b56dd1461028e578063e985e9c5146102a1578063f2fde38b146102b6578063f4712fbe146102c9575f80fd5b80638da5cb5b1461021157806395d89b4114610224578063a22cb4651461022c578063af87e0861461023a578063b3ab15fb1461025a575f80fd5b806323b872dd116100fa57806323b872dd146101c557806342842e0e146101c5578063570ca735146101d85780636352211e146101eb57806370a08231146101fe575f80fd5b806301ffc9a71461013657806306fdde031461015e578063081812fc14610173578063095ea7b31461019e57806318160ddd146101b3575b5f80fd5b610149610144366004610d0e565b6102dc565b60405190151581526020015b60405180910390f35b610166610312565b6040516101559190610d89565b610186610181366004610d9b565b505f90565b6040516001600160a01b039091168152602001610155565b6101b16101ac366004610dcd565b61039d565b005b6005545b604051908152602001610155565b6101b16101d3366004610df5565b610400565b600354610186906001600160a01b031681565b6101866101f9366004610d9b565b61045e565b6101b761020c366004610e2e565b610492565b600254610186906001600160a01b031681565b610166610504565b6101b16101ac366004610e47565b61024d610248366004610d9b565b610511565b6040516101559190610e80565b6101b1610268366004610e2e565b610628565b6101b16101d3366004610f00565b6101b7610289366004610f6a565b6106a0565b61016661029c366004610d9b565b6109a4565b6101496102af366004610fc0565b5f92915050565b6101b16102c4366004610e2e565b610add565b6101b76102d7366004610d9b565b610bab565b5f6380ac58cd60e01b6001600160e01b03198316148061030c57506301ffc9a760e01b6001600160e01b03198316145b92915050565b5f805461031e90610ff1565b80601f016020809104026020016040519081016040528092919081815260200182805461034a90610ff1565b80156103955780601f1061036c57610100808354040283529160200191610395565b820191905f5260205f20905b81548152906001019060200180831161037857829003601f168201915b505050505081565b60405162461bcd60e51b815260206004820152602d60248201527f4661627269634964656e746974793a20736f756c626f756e64202d206170707260448201526c1bdd985b08191a5cd8589b1959609a1b60648201526084015b60405180910390fd5b60405162461bcd60e51b815260206004820152602d60248201527f4661627269634964656e746974793a20736f756c626f756e64202d207472616e60448201526c1cd9995c88191a5cd8589b1959609a1b60648201526084016103f7565b5f818152600660205260408120546001600160a01b03168061030c5760405162461bcd60e51b81526004016103f790611029565b5f6001600160a01b0382166104e95760405162461bcd60e51b815260206004820152601c60248201527f4661627269634964656e746974793a207a65726f20616464726573730000000060448201526064016103f7565b506001600160a01b03165f9081526007602052604090205490565b6001805461031e90610ff1565b6105336040518060600160405280606081526020015f81526020015f81525090565b5f828152600660205260409020546001600160a01b03166105665760405162461bcd60e51b81526004016103f790611029565b5f828152600a60205260409081902081516060810190925280548290829061058d90610ff1565b80601f01602080910402602001604051908101604052809291908181526020018280546105b990610ff1565b80156106045780601f106105db57610100808354040283529160200191610604565b820191905f5260205f20905b8154815290600101906020018083116105e757829003601f168201915b50505050508152602001600182015481526020016002820154815250509050919050565b6002546001600160a01b0316331461067e5760405162461bcd60e51b81526020600482015260196024820152782330b13934b1a4b232b73a34ba3c9d103737ba1037bbb732b960391b60448201526064016103f7565b600380546001600160a01b0319166001600160a01b0392909216919091179055565b6003545f906001600160a01b03163314806106c557506002546001600160a01b031633145b6107115760405162461bcd60e51b815260206004820152601c60248201527f4661627269634964656e746974793a206e6f74206f70657261746f720000000060448201526064016103f7565b6001600160a01b0385166107675760405162461bcd60e51b815260206004820152601c60248201527f4661627269634964656e746974793a206d696e7420746f207a65726f0000000060448201526064016103f7565b826107b45760405162461bcd60e51b815260206004820152601a60248201527f4661627269634964656e746974793a20656d707479206e616d6500000000000060448201526064016103f7565b5f828152600b6020526040902054156108225760405162461bcd60e51b815260206004820152602a60248201527f4661627269634964656e746974793a20726567697374727920494420616c726560448201526918591e481b5a5b9d195960b21b60648201526084016103f7565b60048054905f61083183611074565b90915550600580549192505f61084683611074565b90915550505f81815260066020908152604080832080546001600160a01b0319166001600160a01b038a1690811790915583526007909152812080549161088c83611074565b9190505550604051806060016040528085858080601f0160208091040260200160405190810160405280939291908181526020018383808284375f920182905250938552505050602080830186905242604093840152848252600a905220815181906108f890826110ec565b5060208281015160018301556040928301516002909201919091555f848152600b909152818120839055905182916001600160a01b038816917fddf252ad1be2c89b69c2b068fc378daa952ba7f163c4a11628f55a4df523b3ef908290a4846001600160a01b0316817fa4652c347eda285ec0c39ae9b126864ddd645ea09491cf0cccc0628a8affcc6a868686604051610994939291906111ac565b60405180910390a3949350505050565b5f818152600660205260409020546060906001600160a01b03166109da5760405162461bcd60e51b81526004016103f790611029565b5f828152600a6020526040808220815160608101909252805482908290610a0090610ff1565b80601f0160208091040260200160405190810160405280929190818152602001828054610a2c90610ff1565b8015610a775780601f10610a4e57610100808354040283529160200191610a77565b820191905f5260205f20905b815481529060010190602001808311610a5a57829003601f168201915b50505050508152602001600182015481526020016002820154815250509050805f0151610aa78260200151610c08565b610ab48360400151610c08565b604051602001610ac6939291906111e3565b604051602081830303815290604052915050919050565b6002546001600160a01b03163314610b335760405162461bcd60e51b81526020600482015260196024820152782330b13934b1a4b232b73a34ba3c9d103737ba1037bbb732b960391b60448201526064016103f7565b6001600160a01b038116610b895760405162461bcd60e51b815260206004820152601c60248201527f4661627269634964656e746974793a207a65726f20616464726573730000000060448201526064016103f7565b600280546001600160a01b0319166001600160a01b0392909216919091179055565b5f818152600b602052604081205480820361030c5760405162461bcd60e51b815260206004820152601960248201527f4661627269634964656e746974793a206e6f7420666f756e640000000000000060448201526064016103f7565b6060815f03610c2e5750506040805180820190915260018152600360fc1b602082015290565b815f5b8115610c575780610c4181611074565b9150610c509050600a83611320565b9150610c31565b5f8167ffffffffffffffff811115610c7157610c7161108c565b6040519080825280601f01601f191660200182016040528015610c9b576020820181803683370190505b5090505b8415610d065781610caf81611333565b9250610cbe9050600a86611348565b610cc990603061135b565b60f81b818381518110610cde57610cde61136e565b60200101906001600160f81b03191690815f1a905350610cff600a86611320565b9450610c9f565b949350505050565b5f60208284031215610d1e575f80fd5b81356001600160e01b031981168114610d35575f80fd5b9392505050565b5f5b83811015610d56578181015183820152602001610d3e565b50505f910152565b5f8151808452610d75816020860160208601610d3c565b601f01601f19169290920160200192915050565b602081525f610d356020830184610d5e565b5f60208284031215610dab575f80fd5b5035919050565b80356001600160a01b0381168114610dc8575f80fd5b919050565b5f8060408385031215610dde575f80fd5b610de783610db2565b946020939093013593505050565b5f805f60608486031215610e07575f80fd5b610e1084610db2565b9250610e1e60208501610db2565b9150604084013590509250925092565b5f60208284031215610e3e575f80fd5b610d3582610db2565b5f8060408385031215610e58575f80fd5b610e6183610db2565b915060208301358015158114610e75575f80fd5b809150509250929050565b602081525f825160606020840152610e9b6080840182610d5e565b905060208401516040840152604084015160608401528091505092915050565b5f8083601f840112610ecb575f80fd5b50813567ffffffffffffffff811115610ee2575f80fd5b602083019150836020828501011115610ef9575f80fd5b9250929050565b5f805f805f60808688031215610f14575f80fd5b610f1d86610db2565b9450610f2b60208701610db2565b935060408601359250606086013567ffffffffffffffff811115610f4d575f80fd5b610f5988828901610ebb565b969995985093965092949392505050565b5f805f8060608587031215610f7d575f80fd5b610f8685610db2565b9350602085013567ffffffffffffffff811115610fa1575f80fd5b610fad87828801610ebb565b9598909750949560400135949350505050565b5f8060408385031215610fd1575f80fd5b610fda83610db2565b9150610fe860208401610db2565b90509250929050565b600181811c9082168061100557607f821691505b60208210810361102357634e487b7160e01b5f52602260045260245ffd5b50919050565b6020808252601f908201527f4661627269634964656e746974793a20746f6b656e206e6f7420666f756e6400604082015260600190565b634e487b7160e01b5f52601160045260245ffd5b5f6001820161108557611085611060565b5060010190565b634e487b7160e01b5f52604160045260245ffd5b601f8211156110e757805f5260205f20601f840160051c810160208510156110c55750805b601f840160051c820191505b818110156110e4575f81556001016110d1565b50505b505050565b815167ffffffffffffffff8111156111065761110661108c565b61111a816111148454610ff1565b846110a0565b602080601f83116001811461114d575f84156111365750858301515b5f19600386901b1c1916600185901b1785556111a4565b5f85815260208120601f198616915b8281101561117b5788860151825594840194600190910190840161115c565b508582101561119857878501515f19600388901b60f8161c191681555b505060018460011b0185555b505050505050565b60408152826040820152828460608301375f606084830101525f6060601f19601f8601168301019050826020830152949350505050565b7f646174613a6170706c69636174696f6e2f6a736f6e2c7b226e616d65223a220081525f845161121a81601f850160208901610d3c565b7f222c226465736372697074696f6e223a22466162726963204167656e74204964601f918401918201527f656e74697479222c2261747472696275746573223a5b7b2274726169745f7479603f8201527f7065223a225265676973747279204944222c2276616c7565223a220000000000605f82015284516112a381607a840160208901610d3c565b7f227d2c7b2274726169745f74797065223a2243726561746564222c2276616c75607a92909101918201526332911d1160e11b609a82015283516112ee81609e840160208801610d3c565b63227d5d7d60e01b609e929091019182015260a20195945050505050565b634e487b7160e01b5f52601260045260245ffd5b5f8261132e5761132e61130c565b500490565b5f8161134157611341611060565b505f190190565b5f826113565761135661130c565b500690565b8082018082111561030c5761030c611060565b634e487b7160e01b5f52603260045260245ffdfea2646970667358221220927d0c973a99639b4ae7d0e05017bce63654b48e60e86a4ec71bb132c54b0edd64736f6c63430008180033","linkReferences":{}},"methodIdentifiers":{"approve(address,uint256)":"095ea7b3","balanceOf(address)":"70a08231","getAgentData(uint256)":"af87e086","getApproved(uint256)":"081812fc","isApprovedForAll(address,address)":"e985e9c5","mint(address,string,uint256)":"ba7aef43","name()":"06fdde03","operator()":"570ca735","owner()":"8da5cb5b","ownerOf(uint256)":"6352211e","safeTransferFrom(address,address,uint256)":"42842e0e","safeTransferFrom(address,address,uint256,bytes)":"b88d4fde","setApprovalForAll(address,bool)":"a22cb465","setOperator(address)":"b3ab15fb","supportsInterface(bytes4)":"01ffc9a7","symbol()":"95d89b41","tokenByRegistryId(uint256)":"f4712fbe","tokenURI(uint256)":"c87b56dd","totalSupply()":"18160ddd","transferFrom(address,address,uint256)":"23b872dd","transferOwnership(address)":"f2fde38b"},"id":1}