{"abi":[{"type":"constructor","inputs":[{"name":"_operator","type":"address","internalType":"address"}],"stateMutability":"nonpayable"},{"type":"function","name":"batchUpdateReputation","inputs":[{"name":"agentIds","type":"uint256[]","internalType":"uint256[]"},{"name":"newScores","type":"uint256[]","internalType":"uint256[]"},{"name":"interactions","type":"uint256[]","internalType":"uint256[]"}],"outputs":[],"stateMutability":"nonpayable"},{"type":"function","name":"deactivateAgent","inputs":[{"name":"agentId","type":"uint256","internalType":"uint256"}],"outputs":[],"stateMutability":"nonpayable"},{"type":"function","name":"getAgent","inputs":[{"name":"agentId","type":"uint256","internalType":"uint256"}],"outputs":[{"name":"","type":"tuple","internalType":"struct IFabricRegistry.Agent","components":[{"name":"owner","type":"address","internalType":"address"},{"name":"endpoint","type":"string","internalType":"string"},{"name":"category","type":"string","internalType":"string"},{"name":"name","type":"string","internalType":"string"},{"name":"reputationScore","type":"uint256","internalType":"uint256"},{"name":"totalInteractions","type":"uint256","internalType":"uint256"},{"name":"registeredAt","type":"uint256","internalType":"uint256"},{"name":"active","type":"bool","internalType":"bool"}]}],"stateMutability":"view"},{"type":"function","name":"getAgentsByCategory","inputs":[{"name":"category","type":"string","internalType":"string"},{"name":"offset","type":"uint256","internalType":"uint256"},{"name":"limit","type":"uint256","internalType":"uint256"}],"outputs":[{"name":"agents","type":"tuple[]","internalType":"struct IFabricRegistry.Agent[]","components":[{"name":"owner","type":"address","internalType":"address"},{"name":"endpoint","type":"string","internalType":"string"},{"name":"category","type":"string","internalType":"string"},{"name":"name","type":"string","internalType":"string"},{"name":"reputationScore","type":"uint256","internalType":"uint256"},{"name":"totalInteractions","type":"uint256","internalType":"uint256"},{"name":"registeredAt","type":"uint256","internalType":"uint256"},{"name":"active","type":"bool","internalType":"bool"}]},{"name":"total","type":"uint256","internalType":"uint256"}],"stateMutability":"view"},{"type":"function","name":"getAgentsByOwner","inputs":[{"name":"ownerAddr","type":"address","internalType":"address"}],"outputs":[{"name":"","type":"uint256[]","internalType":"uint256[]"}],"stateMutability":"view"},{"type":"function","name":"getReputation","inputs":[{"name":"agentId","type":"uint256","internalType":"uint256"}],"outputs":[{"name":"score","type":"uint256","internalType":"uint256"},{"name":"interactions","type":"uint256","internalType":"uint256"}],"stateMutability":"view"},{"type":"function","name":"isActive","inputs":[{"name":"agentId","type":"uint256","internalType":"uint256"}],"outputs":[{"name":"","type":"bool","internalType":"bool"}],"stateMutability":"view"},{"type":"function","name":"operator","inputs":[],"outputs":[{"name":"","type":"address","internalType":"address"}],"stateMutability":"view"},{"type":"function","name":"owner","inputs":[],"outputs":[{"name":"","type":"address","internalType":"address"}],"stateMutability":"view"},{"type":"function","name":"reactivateAgent","inputs":[{"name":"agentId","type":"uint256","internalType":"uint256"}],"outputs":[],"stateMutability":"nonpayable"},{"type":"function","name":"registerAgent","inputs":[{"name":"name","type":"string","internalType":"string"},{"name":"category","type":"string","internalType":"string"},{"name":"endpoint","type":"string","internalType":"string"}],"outputs":[{"name":"agentId","type":"uint256","internalType":"uint256"}],"stateMutability":"nonpayable"},{"type":"function","name":"setOperator","inputs":[{"name":"_operator","type":"address","internalType":"address"}],"outputs":[],"stateMutability":"nonpayable"},{"type":"function","name":"totalAgents","inputs":[],"outputs":[{"name":"","type":"uint256","internalType":"uint256"}],"stateMutability":"view"},{"type":"function","name":"transferOwnership","inputs":[{"name":"newOwner","type":"address","internalType":"address"}],"outputs":[],"stateMutability":"nonpayable"},{"type":"function","name":"updateAgent","inputs":[{"name":"agentId","type":"uint256","internalType":"uint256"},{"name":"endpoint","type":"string","internalType":"string"},{"name":"category","type":"string","internalType":"string"}],"outputs":[],"stateMutability":"nonpayable"},{"type":"function","name":"updateReputation","inputs":[{"name":"agentId","type":"uint256","internalType":"uint256"},{"name":"newScore","type":"uint256","internalType":"uint256"},{"name":"interactions","type":"uint256","internalType":"uint256"}],"outputs":[],"stateMutability":"nonpayable"},{"type":"event","name":"AgentDeactivated","inputs":[{"name":"agentId","type":"uint256","indexed":true,"internalType":"uint256"}],"anonymous":false},{"type":"event","name":"AgentReactivated","inputs":[{"name":"agentId","type":"uint256","indexed":true,"internalType":"uint256"}],"anonymous":false},{"type":"event","name":"AgentRegistered","inputs":[{"name":"agentId","type":"uint256","indexed":true,"internalType":"uint256"},{"name":"owner","type":"address","indexed":true,"internalType":"address"},{"name":"name","type":"string","indexed":false,"internalType":"string"},{"name":"category","type":"string","indexed":false,"internalType":"string"},{"name":"endpoint","type":"string","indexed":false,"internalType":"string"}],"anonymous":false},{"type":"event","name":"AgentUpdated","inputs":[{"name":"agentId","type":"uint256","indexed":true,"internalType":"uint256"},{"name":"endpoint","type":"string","indexed":false,"internalType":"string"},{"name":"category","type":"string","indexed":false,"internalType":"string"}],"anonymous":false},{"type":"event","name":"BatchReputationUpdated","inputs":[{"name":"agentIds","type":"uint256[]","indexed":false,"internalType":"uint256[]"},{"name":"newScores","type":"uint256[]","indexed":false,"internalType":"uint256[]"}],"anonymous":false},{"type":"event","name":"ReputationUpdated","inputs":[{"name":"agentId","type":"uint256","indexed":true,"internalType":"uint256"},{"name":"oldScore","type":"uint256","indexed":false,"internalType":"uint256"},{"name":"newScore","type":"uint256","indexed":false,"internalType":"uint256"},{"name":"totalInteractions","type":"uint256","indexed":false,"internalType":"uint256"}],"anonymous":false}],"bytecode":{"object":"0x60806040526001600255348015610014575f80fd5b50604051620020e6380380620020e683398101604081905261003591610067565b5f8054336001600160a01b031991821617909155600180549091166001600160a01b0392909216919091179055610094565b5f60208284031215610077575f80fd5b81516001600160a01b038116811461008d575f80fd5b9392505050565b61204480620000a25f395ff3fe608060405234801561000f575f80fd5b50600436106100fa575f3560e01c806382afd23b11610093578063c505371211610063578063c505371214610251578063f2fde38b14610259578063fd5be8fd1461026c578063fd6103171461028d575f80fd5b806382afd23b146101e157806389370d8b146102045780638da5cb5b1461022c578063b3ab15fb1461023e575f80fd5b80633b53bb6f116100ce5780633b53bb6f1461016f57806356a2d66014610182578063570ca735146101a35780636357677a146101ce575f80fd5b8062c900ab146100fe57806311ba6b4a146101135780631ab6f888146101265780632de5aaf71461014f575b5f80fd5b61011161010c366004611748565b6102a0565b005b6101116101213660046117db565b610526565b6101396101343660046117f2565b610630565b604051610146919061181f565b60405180910390f35b61016261015d3660046117db565b610699565b604051610146919061193c565b61011161017d36600461194e565b6108e3565b6101956101903660046119b5565b610a27565b604051908152602001610146565b6001546101b6906001600160a01b031681565b6040516001600160a01b039091168152602001610146565b6101116101dc366004611a36565b610d8e565b6101f46101ef3660046117db565b610f8f565b6040519015158152602001610146565b6102176102123660046117db565b610fc4565b60408051928352602083019190915201610146565b5f546101b6906001600160a01b031681565b61011161024c3660046117f2565b611014565b61019561108b565b6101116102673660046117f2565b6110a0565b61027f61027a366004611aaa565b61116c565b604051610146929190611af7565b61011161029b3660046117db565b6114f0565b6001546001600160a01b03163314806102c257505f546001600160a01b031633145b6103135760405162461bcd60e51b815260206004820152601c60248201527f46616272696352656769737472793a206e6f74206f70657261746f720000000060448201526064015b60405180910390fd5b848314801561032157508481145b61037b5760405162461bcd60e51b815260206004820152602560248201527f46616272696352656769737472793a206172726179206c656e677468206d69736044820152640dac2e8c6d60db1b606482015260840161030a565b60648511156103cc5760405162461bcd60e51b815260206004820152601f60248201527f46616272696352656769737472793a20626174636820746f6f206c6172676500604482015260640161030a565b5f5b858110156104e0575f60035f8989858181106103ec576103ec611b61565b9050602002013581526020019081526020015f2060060154116104215760405162461bcd60e51b815260040161030a90611b75565b61c35085858381811061043657610436611b61565b90506020020135111561045b5760405162461bcd60e51b815260040161030a90611bac565b5f60035f89898581811061047157610471611b61565b9050602002013581526020019081526020015f20905085858381811061049957610499611b61565b60200291909101356004830155508383838181106104b9576104b9611b61565b90506020020135816005015f8282546104d29190611c01565b9091555050506001016103ce565b507fd8a8e309b61703231225ebcbc7a36aea0e93810df38f0523924df1ce44b32552868686866040516105169493929190611c44565b60405180910390a1505050505050565b5f8181526003602052604090206006015481906105555760405162461bcd60e51b815260040161030a90611b75565b5f8281526003602052604090205482906001600160a01b0316331461058c5760405162461bcd60e51b815260040161030a90611c75565b5f8381526003602052604090206007015460ff166105ec5760405162461bcd60e51b815260206004820181905260248201527f46616272696352656769737472793a20616c726561647920696e616374697665604482015260640161030a565b5f83815260036020526040808220600701805460ff191690555184917fc2fb7f8575ac3990e70361684edfc4d283931ea9a03dfa28766bf376a3934aa291a2505050565b6001600160a01b0381165f9081526004602090815260409182902080548351818402810184019094528084526060939283018282801561068d57602002820191905f5260205f20905b815481526020019060010190808311610679575b50505050509050919050565b6106a16116b5565b5f8281526003602052604090206006015482906106d05760405162461bcd60e51b815260040161030a90611b75565b5f838152600360209081526040918290208251610100810190935280546001600160a01b03168352600181018054919284019161070c90611cac565b80601f016020809104026020016040519081016040528092919081815260200182805461073890611cac565b80156107835780601f1061075a57610100808354040283529160200191610783565b820191905f5260205f20905b81548152906001019060200180831161076657829003601f168201915b5050505050815260200160028201805461079c90611cac565b80601f01602080910402602001604051908101604052809291908181526020018280546107c890611cac565b80156108135780601f106107ea57610100808354040283529160200191610813565b820191905f5260205f20905b8154815290600101906020018083116107f657829003601f168201915b5050505050815260200160038201805461082c90611cac565b80601f016020809104026020016040519081016040528092919081815260200182805461085890611cac565b80156108a35780601f1061087a576101008083540402835291602001916108a3565b820191905f5260205f20905b81548152906001019060200180831161088657829003601f168201915b505050918352505060048201546020820152600582015460408201526006820154606082015260079091015460ff16151560809091015291505b50919050565b5f8381526003602052604090206006015483906109125760405162461bcd60e51b815260040161030a90611b75565b6001546001600160a01b031633148061093457505f546001600160a01b031633145b6109805760405162461bcd60e51b815260206004820152601c60248201527f46616272696352656769737472793a206e6f74206f70657261746f7200000000604482015260640161030a565b61c3508311156109a25760405162461bcd60e51b815260040161030a90611bac565b5f84815260036020526040812060048101805490869055600582018054929391928692906109d1908490611c01565b9091555050600582015460408051838152602081018890529081019190915286907faf5692cc9b8ad144229fa0e32a83390bd644dbc02cc27ee00a357da85b2d47599060600160405180910390a2505050505050565b5f8515801590610a38575060808611155b610a845760405162461bcd60e51b815260206004820152601c60248201527f46616272696352656769737472793a20696e76616c6964206e616d6500000000604482015260640161030a565b8315801590610a94575060408411155b610ae05760405162461bcd60e51b815260206004820181905260248201527f46616272696352656769737472793a20696e76616c69642063617465676f7279604482015260640161030a565b8115801590610af157506102008211155b610b3d5760405162461bcd60e51b815260206004820181905260248201527f46616272696352656769737472793a20696e76616c696420656e64706f696e74604482015260640161030a565b60028054905f610b4c83611cde565b919050559050604051806101000160405280336001600160a01b0316815260200184848080601f0160208091040260200160405190810160405280939291908181526020018383808284375f92019190915250505090825250604080516020601f8901819004810282018101909252878152918101919088908890819084018382808284375f92019190915250505090825250604080516020601f8b0181900481028201810190925289815291810191908a908a90819084018382808284375f920182905250938552505050602080830182905260408084018390524260608501526001608090940184905285835260038252909120835181546001600160a01b0319166001600160a01b03909116178155908301519091820190610c719082611d56565b5060408201516002820190610c869082611d56565b5060608201516003820190610c9b9082611d56565b50608082015160048281019190915560a083015160058084019190915560c0840151600684015560e0909301516007909201805460ff191692151592909217909155335f9081526020918252604080822080546001810182559083529282209092018490559051610d0f9088908890611e16565b604080519182900390912082526020808301939093529081015f908120805460018101825590825292902090910182905551339082907fcf07c596ae4da623a80266c34379db1a6f349ea922be113e509f83be5475146590610d7c908b908b908b908b908b908b90611e4d565b60405180910390a39695505050505050565b5f858152600360205260409020600601548590610dbd5760405162461bcd60e51b815260040161030a90611b75565b5f8681526003602052604090205486906001600160a01b03163314610df45760405162461bcd60e51b815260040161030a90611c75565b8415801590610e0557506102008511155b610e515760405162461bcd60e51b815260206004820181905260248201527f46616272696352656769737472793a20696e76616c696420656e64706f696e74604482015260640161030a565b8215801590610e61575060408311155b610ead5760405162461bcd60e51b815260206004820181905260248201527f46616272696352656769737472793a20696e76616c69642063617465676f7279604482015260640161030a565b5f878152600360205260408082209051909190610ece906002840190611e95565b604051809103902090505f8686604051610ee9929190611e16565b60405180910390209050808214610f2557610f04828b6115fe565b5f818152600560209081526040822080546001810182559083529120018a90555b60018301610f34898b83611f07565b5060028301610f44878983611f07565b50897fa204e9f3745f9cc9a01846af596f35e6d839de0ef8062d09214edbbe63cadb988a8a8a8a604051610f7b9493929190611fc1565b60405180910390a250505050505050505050565b5f8181526003602052604081206006015415801590610fbe57505f8281526003602052604090206007015460ff165b92915050565b5f8181526003602052604081206006015481908390610ff55760405162461bcd60e51b815260040161030a90611b75565b5050505f90815260036020526040902060048101546005909101549091565b5f546001600160a01b031633146110695760405162461bcd60e51b81526020600482015260196024820152782330b13934b1a932b3b4b9ba393c9d103737ba1037bbb732b960391b604482015260640161030a565b600180546001600160a01b0319166001600160a01b0392909216919091179055565b5f600160025461109b9190611fe7565b905090565b5f546001600160a01b031633146110f55760405162461bcd60e51b81526020600482015260196024820152782330b13934b1a932b3b4b9ba393c9d103737ba1037bbb732b960391b604482015260640161030a565b6001600160a01b03811661114b5760405162461bcd60e51b815260206004820152601c60248201527f46616272696352656769737472793a207a65726f206164647265737300000000604482015260640161030a565b5f80546001600160a01b0319166001600160a01b0392909216919091179055565b60605f808686604051611180929190611e16565b60408051918290039091205f8181526005602052919091208054935090915082861015806111ac575084155b156111eb57604080515f80825260208201909252906111e1565b6111ce6116b5565b8152602001906001900390816111c65790505b50935050506114e7565b5f6111f68688611c01565b9050838111156112035750825b5f61120e8883611fe7565b90508067ffffffffffffffff81111561122957611229611cf6565b60405190808252806020026020018201604052801561126257816020015b61124f6116b5565b8152602001906001900390816112475790505b5095505f5b818110156114e15760035f8561127d848d611c01565b8154811061128d5761128d611b61565b905f5260205f20015481526020019081526020015f20604051806101000160405290815f82015f9054906101000a90046001600160a01b03166001600160a01b03166001600160a01b031681526020016001820180546112ec90611cac565b80601f016020809104026020016040519081016040528092919081815260200182805461131890611cac565b80156113635780601f1061133a57610100808354040283529160200191611363565b820191905f5260205f20905b81548152906001019060200180831161134657829003601f168201915b5050505050815260200160028201805461137c90611cac565b80601f01602080910402602001604051908101604052809291908181526020018280546113a890611cac565b80156113f35780601f106113ca576101008083540402835291602001916113f3565b820191905f5260205f20905b8154815290600101906020018083116113d657829003601f168201915b5050505050815260200160038201805461140c90611cac565b80601f016020809104026020016040519081016040528092919081815260200182805461143890611cac565b80156114835780601f1061145a57610100808354040283529160200191611483565b820191905f5260205f20905b81548152906001019060200180831161146657829003601f168201915b505050918352505060048201546020820152600582015460408201526006820154606082015260079091015460ff16151560809091015287518890839081106114ce576114ce611b61565b6020908102919091010152600101611267565b50505050505b94509492505050565b5f81815260036020526040902060060154819061151f5760405162461bcd60e51b815260040161030a90611b75565b5f8281526003602052604090205482906001600160a01b031633146115565760405162461bcd60e51b815260040161030a90611c75565b5f8381526003602052604090206007015460ff16156115b75760405162461bcd60e51b815260206004820152601e60248201527f46616272696352656769737472793a20616c7265616479206163746976650000604482015260640161030a565b5f83815260036020526040808220600701805460ff191660011790555184917f7cce21c1f4552995dccace889e9ad45febf59c654d3fd1d7ab0457fa1439aa2c91a2505050565b5f828152600560205260408120905b81548110156116af578282828154811061162957611629611b61565b905f5260205f200154036116a7578154829061164790600190611fe7565b8154811061165757611657611b61565b905f5260205f20015482828154811061167257611672611b61565b905f5260205f2001819055508180548061168e5761168e611ffa565b600190038181905f5260205f20015f9055905550505050565b60010161160d565b50505050565b6040518061010001604052805f6001600160a01b031681526020016060815260200160608152602001606081526020015f81526020015f81526020015f81526020015f151581525090565b5f8083601f840112611710575f80fd5b50813567ffffffffffffffff811115611727575f80fd5b6020830191508360208260051b8501011115611741575f80fd5b9250929050565b5f805f805f806060878903121561175d575f80fd5b863567ffffffffffffffff80821115611774575f80fd5b6117808a838b01611700565b90985096506020890135915080821115611798575f80fd5b6117a48a838b01611700565b909650945060408901359150808211156117bc575f80fd5b506117c989828a01611700565b979a9699509497509295939492505050565b5f602082840312156117eb575f80fd5b5035919050565b5f60208284031215611802575f80fd5b81356001600160a01b0381168114611818575f80fd5b9392505050565b602080825282518282018190525f9190848201906040850190845b818110156118565783518352928401929184019160010161183a565b50909695505050505050565b5f81518084525f5b818110156118865760208185018101518683018201520161186a565b505f602082860101526020601f19601f83011685010191505092915050565b5f61010060018060a01b03835116845260208301518160208601526118cc82860182611862565b915050604083015184820360408601526118e68282611862565b915050606083015184820360608601526119008282611862565b9150506080830151608085015260a083015160a085015260c083015160c085015260e083015161193460e086018215159052565b509392505050565b602081525f61181860208301846118a5565b5f805f60608486031215611960575f80fd5b505081359360208301359350604090920135919050565b5f8083601f840112611987575f80fd5b50813567ffffffffffffffff81111561199e575f80fd5b602083019150836020828501011115611741575f80fd5b5f805f805f80606087890312156119ca575f80fd5b863567ffffffffffffffff808211156119e1575f80fd5b6119ed8a838b01611977565b90985096506020890135915080821115611a05575f80fd5b611a118a838b01611977565b90965094506040890135915080821115611a29575f80fd5b506117c989828a01611977565b5f805f805f60608688031215611a4a575f80fd5b85359450602086013567ffffffffffffffff80821115611a68575f80fd5b611a7489838a01611977565b90965094506040880135915080821115611a8c575f80fd5b50611a9988828901611977565b969995985093965092949392505050565b5f805f8060608587031215611abd575f80fd5b843567ffffffffffffffff811115611ad3575f80fd5b611adf87828801611977565b90989097506020870135966040013595509350505050565b5f604082016040835280855180835260608501915060608160051b860101925060208088015f5b83811015611b4c57605f19888703018552611b3a8683516118a5565b95509382019390820190600101611b1e565b50505050506020929092019290925292915050565b634e487b7160e01b5f52603260045260245ffd5b6020808252601f908201527f46616272696352656769737472793a206167656e74206e6f7420666f756e6400604082015260600190565b60208082526021908201527f46616272696352656769737472793a2073636f72652065786365656473206d616040820152600f60fb1b606082015260800190565b634e487b7160e01b5f52601160045260245ffd5b80820180821115610fbe57610fbe611bed565b8183525f6001600160fb1b03831115611c2b575f80fd5b8260051b80836020870137939093016020019392505050565b604081525f611c57604083018688611c14565b8281036020840152611c6a818587611c14565b979650505050505050565b6020808252601f908201527f46616272696352656769737472793a206e6f74206167656e74206f776e657200604082015260600190565b600181811c90821680611cc057607f821691505b6020821081036108dd57634e487b7160e01b5f52602260045260245ffd5b5f60018201611cef57611cef611bed565b5060010190565b634e487b7160e01b5f52604160045260245ffd5b601f821115611d5157805f5260205f20601f840160051c81016020851015611d2f5750805b601f840160051c820191505b81811015611d4e575f8155600101611d3b565b50505b505050565b815167ffffffffffffffff811115611d7057611d70611cf6565b611d8481611d7e8454611cac565b84611d0a565b602080601f831160018114611db7575f8415611da05750858301515b5f19600386901b1c1916600185901b178555611e0e565b5f85815260208120601f198616915b82811015611de557888601518255948401946001909101908401611dc6565b5085821015611e0257878501515f19600388901b60f8161c191681555b505060018460011b0185555b505050505050565b818382375f9101908152919050565b81835281816020850137505f828201602090810191909152601f909101601f19169091010190565b606081525f611e6060608301888a611e25565b8281036020840152611e73818789611e25565b90508281036040840152611e88818587611e25565b9998505050505050505050565b5f808354611ea281611cac565b60018281168015611eba5760018114611ecf57611efb565b60ff1984168752821515830287019450611efb565b875f526020805f205f5b85811015611ef25781548a820152908401908201611ed9565b50505082870194505b50929695505050505050565b67ffffffffffffffff831115611f1f57611f1f611cf6565b611f3383611f2d8354611cac565b83611d0a565b5f601f841160018114611f64575f8515611f4d5750838201355b5f19600387901b1c1916600186901b178355611d4e565b5f83815260208120601f198716915b82811015611f935786850135825560209485019460019092019101611f73565b5086821015611faf575f1960f88860031b161c19848701351681555b505060018560011b0183555050505050565b604081525f611fd4604083018688611e25565b8281036020840152611c6a818587611e25565b81810381811115610fbe57610fbe611bed565b634e487b7160e01b5f52603160045260245ffdfea264697066735822122044f7f9d0578addbe79dd5e7fc70d4f1da704b7388c6be957fdf204c9664740b364736f6c63430008180033","linkReferences":{}},"methodIdentifiers":{"batchUpdateReputation(uint256[],uint256[],uint256[])":"00c900ab","deactivateAgent(uint256)":"11ba6b4a","getAgent(uint256)":"2de5aaf7","getAgentsByCategory(string,uint256,uint256)":"fd5be8fd","getAgentsByOwner(address)":"1ab6f888","getReputation(uint256)":"89370d8b","isActive(uint256)":"82afd23b","operator()":"570ca735","owner()":"8da5cb5b","reactivateAgent(uint256)":"fd610317","registerAgent(string,string,string)":"56a2d660","setOperator(address)":"b3ab15fb","totalAgents()":"c5053712","transferOwnership(address)":"f2fde38b","updateAgent(uint256,string,string)":"6357677a","updateReputation(uint256,uint256,uint256)":"3b53bb6f"},"id":2}